{
  "contractName": "Contacts",
  "abi": [
    {
      "inputs": [],
      "stateMutability": "nonpayable",
      "type": "constructor"
    },
    {
      "anonymous": false,
      "inputs": [
        {
          "indexed": true,
          "internalType": "address",
          "name": "owner",
          "type": "address"
        },
        {
          "indexed": true,
          "internalType": "address",
          "name": "approved",
          "type": "address"
        },
        {
          "indexed": true,
          "internalType": "uint256",
          "name": "tokenId",
          "type": "uint256"
        }
      ],
      "name": "Approval",
      "type": "event"
    },
    {
      "anonymous": false,
      "inputs": [
        {
          "indexed": true,
          "internalType": "address",
          "name": "owner",
          "type": "address"
        },
        {
          "indexed": true,
          "internalType": "address",
          "name": "operator",
          "type": "address"
        },
        {
          "indexed": false,
          "internalType": "bool",
          "name": "approved",
          "type": "bool"
        }
      ],
      "name": "ApprovalForAll",
      "type": "event"
    },
    {
      "anonymous": false,
      "inputs": [
        {
          "indexed": true,
          "internalType": "address",
          "name": "previousOwner",
          "type": "address"
        },
        {
          "indexed": true,
          "internalType": "address",
          "name": "newOwner",
          "type": "address"
        }
      ],
      "name": "OwnershipTransferred",
      "type": "event"
    },
    {
      "anonymous": false,
      "inputs": [
        {
          "indexed": true,
          "internalType": "address",
          "name": "from",
          "type": "address"
        },
        {
          "indexed": true,
          "internalType": "address",
          "name": "to",
          "type": "address"
        },
        {
          "indexed": true,
          "internalType": "uint256",
          "name": "tokenId",
          "type": "uint256"
        }
      ],
      "name": "Transfer",
      "type": "event"
    },
    {
      "inputs": [
        {
          "internalType": "address",
          "name": "to",
          "type": "address"
        },
        {
          "internalType": "uint256",
          "name": "tokenId",
          "type": "uint256"
        }
      ],
      "name": "approve",
      "outputs": [],
      "stateMutability": "nonpayable",
      "type": "function"
    },
    {
      "inputs": [
        {
          "internalType": "address",
          "name": "owner",
          "type": "address"
        }
      ],
      "name": "balanceOf",
      "outputs": [
        {
          "internalType": "uint256",
          "name": "",
          "type": "uint256"
        }
      ],
      "stateMutability": "view",
      "type": "function",
      "constant": true
    },
    {
      "inputs": [
        {
          "internalType": "uint256",
          "name": "tokenId",
          "type": "uint256"
        }
      ],
      "name": "getApproved",
      "outputs": [
        {
          "internalType": "address",
          "name": "",
          "type": "address"
        }
      ],
      "stateMutability": "view",
      "type": "function",
      "constant": true
    },
    {
      "inputs": [
        {
          "internalType": "address",
          "name": "owner",
          "type": "address"
        },
        {
          "internalType": "address",
          "name": "operator",
          "type": "address"
        }
      ],
      "name": "isApprovedForAll",
      "outputs": [
        {
          "internalType": "bool",
          "name": "",
          "type": "bool"
        }
      ],
      "stateMutability": "view",
      "type": "function",
      "constant": true
    },
    {
      "inputs": [],
      "name": "name",
      "outputs": [
        {
          "internalType": "string",
          "name": "",
          "type": "string"
        }
      ],
      "stateMutability": "view",
      "type": "function",
      "constant": true
    },
    {
      "inputs": [
        {
          "internalType": "uint256",
          "name": "",
          "type": "uint256"
        }
      ],
      "name": "nftTokenList",
      "outputs": [
        {
          "internalType": "uint256",
          "name": "",
          "type": "uint256"
        }
      ],
      "stateMutability": "view",
      "type": "function",
      "constant": true
    },
    {
      "inputs": [],
      "name": "owner",
      "outputs": [
        {
          "internalType": "address",
          "name": "",
          "type": "address"
        }
      ],
      "stateMutability": "view",
      "type": "function",
      "constant": true
    },
    {
      "inputs": [
        {
          "internalType": "uint256",
          "name": "tokenId",
          "type": "uint256"
        }
      ],
      "name": "ownerOf",
      "outputs": [
        {
          "internalType": "address",
          "name": "",
          "type": "address"
        }
      ],
      "stateMutability": "view",
      "type": "function",
      "constant": true
    },
    {
      "inputs": [],
      "name": "renounceOwnership",
      "outputs": [],
      "stateMutability": "nonpayable",
      "type": "function"
    },
    {
      "inputs": [
        {
          "internalType": "address",
          "name": "from",
          "type": "address"
        },
        {
          "internalType": "address",
          "name": "to",
          "type": "address"
        },
        {
          "internalType": "uint256",
          "name": "tokenId",
          "type": "uint256"
        }
      ],
      "name": "safeTransferFrom",
      "outputs": [],
      "stateMutability": "nonpayable",
      "type": "function"
    },
    {
      "inputs": [
        {
          "internalType": "address",
          "name": "from",
          "type": "address"
        },
        {
          "internalType": "address",
          "name": "to",
          "type": "address"
        },
        {
          "internalType": "uint256",
          "name": "tokenId",
          "type": "uint256"
        },
        {
          "internalType": "bytes",
          "name": "data",
          "type": "bytes"
        }
      ],
      "name": "safeTransferFrom",
      "outputs": [],
      "stateMutability": "nonpayable",
      "type": "function"
    },
    {
      "inputs": [
        {
          "internalType": "address",
          "name": "operator",
          "type": "address"
        },
        {
          "internalType": "bool",
          "name": "approved",
          "type": "bool"
        }
      ],
      "name": "setApprovalForAll",
      "outputs": [],
      "stateMutability": "nonpayable",
      "type": "function"
    },
    {
      "inputs": [
        {
          "internalType": "bytes4",
          "name": "interfaceId",
          "type": "bytes4"
        }
      ],
      "name": "supportsInterface",
      "outputs": [
        {
          "internalType": "bool",
          "name": "",
          "type": "bool"
        }
      ],
      "stateMutability": "view",
      "type": "function",
      "constant": true
    },
    {
      "inputs": [],
      "name": "symbol",
      "outputs": [
        {
          "internalType": "string",
          "name": "",
          "type": "string"
        }
      ],
      "stateMutability": "view",
      "type": "function",
      "constant": true
    },
    {
      "inputs": [
        {
          "internalType": "uint256",
          "name": "tokenId",
          "type": "uint256"
        }
      ],
      "name": "tokenURI",
      "outputs": [
        {
          "internalType": "string",
          "name": "",
          "type": "string"
        }
      ],
      "stateMutability": "view",
      "type": "function",
      "constant": true
    },
    {
      "inputs": [
        {
          "internalType": "address",
          "name": "from",
          "type": "address"
        },
        {
          "internalType": "address",
          "name": "to",
          "type": "address"
        },
        {
          "internalType": "uint256",
          "name": "tokenId",
          "type": "uint256"
        }
      ],
      "name": "transferFrom",
      "outputs": [],
      "stateMutability": "nonpayable",
      "type": "function"
    },
    {
      "inputs": [
        {
          "internalType": "address",
          "name": "newOwner",
          "type": "address"
        }
      ],
      "name": "transferOwnership",
      "outputs": [],
      "stateMutability": "nonpayable",
      "type": "function"
    },
    {
      "inputs": [],
      "name": "create",
      "outputs": [
        {
          "internalType": "uint256",
          "name": "",
          "type": "uint256"
        }
      ],
      "stateMutability": "nonpayable",
      "type": "function"
    },
    {
      "inputs": [
        {
          "internalType": "uint256",
          "name": "newItemId",
          "type": "uint256"
        },
        {
          "internalType": "string",
          "name": "tokenURI",
          "type": "string"
        }
      ],
      "name": "addData",
      "outputs": [
        {
          "internalType": "uint256",
          "name": "",
          "type": "uint256"
        }
      ],
      "stateMutability": "nonpayable",
      "type": "function"
    },
    {
      "inputs": [],
      "name": "getToken",
      "outputs": [
        {
          "internalType": "uint256[]",
          "name": "",
          "type": "uint256[]"
        }
      ],
      "stateMutability": "view",
      "type": "function",
      "constant": true
    }
  ],
  "bytecode": "0x60806040523480156200001157600080fd5b506040518060400160405280600681526020017f4e546f6b656e00000000000000000000000000000000000000000000000000008152506040518060400160405280600681526020017f4e544f4b454e0000000000000000000000000000000000000000000000000000815250816000908051906020019062000096929190620001a6565b508060019080519060200190620000af929190620001a6565b505050620000d2620000c6620000d860201b60201c565b620000e060201b60201c565b620002ba565b600033905090565b6000600760009054906101000a900473ffffffffffffffffffffffffffffffffffffffff16905081600760006101000a81548173ffffffffffffffffffffffffffffffffffffffff021916908373ffffffffffffffffffffffffffffffffffffffff1602179055508173ffffffffffffffffffffffffffffffffffffffff168173ffffffffffffffffffffffffffffffffffffffff167f8be0079c531659141344cd1fd0a4f28419497f9722a3daafe3b4186f6b6457e060405160405180910390a35050565b828054620001b49062000285565b90600052602060002090601f016020900481019282620001d8576000855562000224565b82601f10620001f357805160ff191683800117855562000224565b8280016001018555821562000224579182015b828111156200022357825182559160200191906001019062000206565b5b50905062000233919062000237565b5090565b5b808211156200025257600081600090555060010162000238565b5090565b7f4e487b7100000000000000000000000000000000000000000000000000000000600052602260045260246000fd5b600060028204905060018216806200029e57607f821691505b602082108103620002b457620002b362000256565b5b50919050565b61305180620002ca6000396000f3fe608060405234801561001057600080fd5b506004361061012c5760003560e01c806370a08231116100ad578063b88d4fde11610071578063b88d4fde14610343578063c87b56dd1461035f578063e985e9c51461038f578063efc81a8c146103bf578063f2fde38b146103dd5761012c565b806370a08231146102b1578063715018a6146102e15780638da5cb5b146102eb57806395d89b4114610309578063a22cb465146103275761012c565b806321df0da7116100f457806321df0da7146101fb57806323b872dd14610219578063424133151461023557806342842e0e146102655780636352211e146102815761012c565b806301ffc9a71461013157806306fdde0314610161578063081812fc1461017f578063095ea7b3146101af5780630dd1abf2146101cb575b600080fd5b61014b60048036038101906101469190611f1e565b6103f9565b6040516101589190611f66565b60405180910390f35b6101696104db565b604051610176919061201a565b60405180910390f35b61019960048036038101906101949190612072565b61056d565b6040516101a691906120e0565b60405180910390f35b6101c960048036038101906101c49190612127565b6105b3565b005b6101e560048036038101906101e09190612072565b6106ca565b6040516101f29190612176565b60405180910390f35b6102036106ee565b604051610210919061224f565b60405180910390f35b610233600480360381019061022e9190612271565b610746565b005b61024f600480360381019061024a91906123f9565b6107a6565b60405161025c9190612176565b60405180910390f35b61027f600480360381019061027a9190612271565b6107bb565b005b61029b60048036038101906102969190612072565b6107db565b6040516102a891906120e0565b60405180910390f35b6102cb60048036038101906102c69190612455565b610861565b6040516102d89190612176565b60405180910390f35b6102e9610918565b005b6102f361092c565b60405161030091906120e0565b60405180910390f35b610311610956565b60405161031e919061201a565b60405180910390f35b610341600480360381019061033c91906124ae565b6109e8565b005b61035d6004803603810190610358919061258f565b6109fe565b005b61037960048036038101906103749190612072565b610a60565b604051610386919061201a565b60405180910390f35b6103a960048036038101906103a49190612612565b610b72565b6040516103b69190611f66565b60405180910390f35b6103c7610c06565b6040516103d49190612176565b60405180910390f35b6103f760048036038101906103f29190612455565b610c5a565b005b60007f80ac58cd000000000000000000000000000000000000000000000000000000007bffffffffffffffffffffffffffffffffffffffffffffffffffffffff1916827bffffffffffffffffffffffffffffffffffffffffffffffffffffffff191614806104c457507f5b5e139f000000000000000000000000000000000000000000000000000000007bffffffffffffffffffffffffffffffffffffffffffffffffffffffff1916827bffffffffffffffffffffffffffffffffffffffffffffffffffffffff1916145b806104d457506104d382610cdd565b5b9050919050565b6060600080546104ea90612681565b80601f016020809104026020016040519081016040528092919081815260200182805461051690612681565b80156105635780601f1061053857610100808354040283529160200191610563565b820191906000526020600020905b81548152906001019060200180831161054657829003601f168201915b5050505050905090565b600061057882610d47565b6004600083815260200190815260200160002060009054906101000a900473ffffffffffffffffffffffffffffffffffffffff169050919050565b60006105be826107db565b90508073ffffffffffffffffffffffffffffffffffffffff168373ffffffffffffffffffffffffffffffffffffffff160361062e576040517f08c379a000000000000000000000000000000000000000000000000000000000815260040161062590612724565b60405180910390fd5b8073ffffffffffffffffffffffffffffffffffffffff1661064d610d92565b73ffffffffffffffffffffffffffffffffffffffff16148061067c575061067b81610676610d92565b610b72565b5b6106bb576040517f08c379a00000000000000000000000000000000000000000000000000000000081526004016106b2906127b6565b60405180910390fd5b6106c58383610d9a565b505050565b600881815481106106da57600080fd5b906000526020600020016000915090505481565b6060600880548060200260200160405190810160405280929190818152602001828054801561073c57602002820191906000526020600020905b815481526020019060010190808311610728575b5050505050905090565b610757610751610d92565b82610e53565b610796576040517f08c379a000000000000000000000000000000000000000000000000000000000815260040161078d90612848565b60405180910390fd5b6107a1838383610ee8565b505050565b60006107b283836111e1565b82905092915050565b6107d6838383604051806020016040528060008152506109fe565b505050565b6000806107e783611255565b9050600073ffffffffffffffffffffffffffffffffffffffff168173ffffffffffffffffffffffffffffffffffffffff1603610858576040517f08c379a000000000000000000000000000000000000000000000000000000000815260040161084f906128b4565b60405180910390fd5b80915050919050565b60008073ffffffffffffffffffffffffffffffffffffffff168273ffffffffffffffffffffffffffffffffffffffff16036108d1576040517f08c379a00000000000000000000000000000000000000000000000000000000081526004016108c890612946565b60405180910390fd5b600360008373ffffffffffffffffffffffffffffffffffffffff1673ffffffffffffffffffffffffffffffffffffffff168152602001908152602001600020549050919050565b610920611292565b61092a6000611310565b565b6000600760009054906101000a900473ffffffffffffffffffffffffffffffffffffffff16905090565b60606001805461096590612681565b80601f016020809104026020016040519081016040528092919081815260200182805461099190612681565b80156109de5780601f106109b3576101008083540402835291602001916109de565b820191906000526020600020905b8154815290600101906020018083116109c157829003601f168201915b5050505050905090565b6109fa6109f3610d92565b83836113d6565b5050565b610a0f610a09610d92565b83610e53565b610a4e576040517f08c379a0000000000000000000000000000000000000000000000000000000008152600401610a4590612848565b60405180910390fd5b610a5a84848484611542565b50505050565b6060610a6b82610d47565b6000600660008481526020019081526020016000208054610a8b90612681565b80601f0160208091040260200160405190810160405280929190818152602001828054610ab790612681565b8015610b045780601f10610ad957610100808354040283529160200191610b04565b820191906000526020600020905b815481529060010190602001808311610ae757829003601f168201915b505050505090506000610b1561159e565b90506000815103610b2a578192505050610b6d565b600082511115610b5f578082604051602001610b479291906129a2565b60405160208183030381529060405292505050610b6d565b610b68846115b5565b925050505b919050565b6000600560008473ffffffffffffffffffffffffffffffffffffffff1673ffffffffffffffffffffffffffffffffffffffff16815260200190815260200160002060008373ffffffffffffffffffffffffffffffffffffffff1673ffffffffffffffffffffffffffffffffffffffff16815260200190815260200160002060009054906101000a900460ff16905092915050565b6000610c12600961161d565b6000610c1e6009611633565b9050610c2a3382611641565b60088190806001815401808255809150506001900390600052602060002001600090919091909150558091505090565b610c62611292565b600073ffffffffffffffffffffffffffffffffffffffff168173ffffffffffffffffffffffffffffffffffffffff1603610cd1576040517f08c379a0000000000000000000000000000000000000000000000000000000008152600401610cc890612a38565b60405180910390fd5b610cda81611310565b50565b60007f01ffc9a7000000000000000000000000000000000000000000000000000000007bffffffffffffffffffffffffffffffffffffffffffffffffffffffff1916827bffffffffffffffffffffffffffffffffffffffffffffffffffffffff1916149050919050565b610d508161165f565b610d8f576040517f08c379a0000000000000000000000000000000000000000000000000000000008152600401610d86906128b4565b60405180910390fd5b50565b600033905090565b816004600083815260200190815260200160002060006101000a81548173ffffffffffffffffffffffffffffffffffffffff021916908373ffffffffffffffffffffffffffffffffffffffff160217905550808273ffffffffffffffffffffffffffffffffffffffff16610e0d836107db565b73ffffffffffffffffffffffffffffffffffffffff167f8c5be1e5ebec7d5bd14f71427d1e84f3dd0314c0f7b2291e5b200ac8c7c3b92560405160405180910390a45050565b600080610e5f836107db565b90508073ffffffffffffffffffffffffffffffffffffffff168473ffffffffffffffffffffffffffffffffffffffff161480610ea15750610ea08185610b72565b5b80610edf57508373ffffffffffffffffffffffffffffffffffffffff16610ec78461056d565b73ffffffffffffffffffffffffffffffffffffffff16145b91505092915050565b8273ffffffffffffffffffffffffffffffffffffffff16610f08826107db565b73ffffffffffffffffffffffffffffffffffffffff1614610f5e576040517f08c379a0000000000000000000000000000000000000000000000000000000008152600401610f5590612aca565b60405180910390fd5b600073ffffffffffffffffffffffffffffffffffffffff168273ffffffffffffffffffffffffffffffffffffffff1603610fcd576040517f08c379a0000000000000000000000000000000000000000000000000000000008152600401610fc490612b5c565b60405180910390fd5b610fda83838360016116a0565b8273ffffffffffffffffffffffffffffffffffffffff16610ffa826107db565b73ffffffffffffffffffffffffffffffffffffffff1614611050576040517f08c379a000000000000000000000000000000000000000000000000000000000815260040161104790612aca565b60405180910390fd5b6004600082815260200190815260200160002060006101000a81549073ffffffffffffffffffffffffffffffffffffffff02191690556001600360008573ffffffffffffffffffffffffffffffffffffffff1673ffffffffffffffffffffffffffffffffffffffff168152602001908152602001600020600082825403925050819055506001600360008473ffffffffffffffffffffffffffffffffffffffff1673ffffffffffffffffffffffffffffffffffffffff16815260200190815260200160002060008282540192505081905550816002600083815260200190815260200160002060006101000a81548173ffffffffffffffffffffffffffffffffffffffff021916908373ffffffffffffffffffffffffffffffffffffffff160217905550808273ffffffffffffffffffffffffffffffffffffffff168473ffffffffffffffffffffffffffffffffffffffff167fddf252ad1be2c89b69c2b068fc378daa952ba7f163c4a11628f55a4df523b3ef60405160405180910390a46111dc83838360016117c6565b505050565b6111ea8261165f565b611229576040517f08c379a000000000000000000000000000000000000000000000000000000000815260040161122090612bee565b60405180910390fd5b80600660008481526020019081526020016000209080519060200190611250929190611e0f565b505050565b60006002600083815260200190815260200160002060009054906101000a900473ffffffffffffffffffffffffffffffffffffffff169050919050565b61129a610d92565b73ffffffffffffffffffffffffffffffffffffffff166112b861092c565b73ffffffffffffffffffffffffffffffffffffffff161461130e576040517f08c379a000000000000000000000000000000000000000000000000000000000815260040161130590612c5a565b60405180910390fd5b565b6000600760009054906101000a900473ffffffffffffffffffffffffffffffffffffffff16905081600760006101000a81548173ffffffffffffffffffffffffffffffffffffffff021916908373ffffffffffffffffffffffffffffffffffffffff1602179055508173ffffffffffffffffffffffffffffffffffffffff168173ffffffffffffffffffffffffffffffffffffffff167f8be0079c531659141344cd1fd0a4f28419497f9722a3daafe3b4186f6b6457e060405160405180910390a35050565b8173ffffffffffffffffffffffffffffffffffffffff168373ffffffffffffffffffffffffffffffffffffffff1603611444576040517f08c379a000000000000000000000000000000000000000000000000000000000815260040161143b90612cc6565b60405180910390fd5b80600560008573ffffffffffffffffffffffffffffffffffffffff1673ffffffffffffffffffffffffffffffffffffffff16815260200190815260200160002060008473ffffffffffffffffffffffffffffffffffffffff1673ffffffffffffffffffffffffffffffffffffffff16815260200190815260200160002060006101000a81548160ff0219169083151502179055508173ffffffffffffffffffffffffffffffffffffffff168373ffffffffffffffffffffffffffffffffffffffff167f17307eab39ab6107e8899845ad3d59bd9653f200f220920489ca2b5937696c31836040516115359190611f66565b60405180910390a3505050565b61154d848484610ee8565b611559848484846117cc565b611598576040517f08c379a000000000000000000000000000000000000000000000000000000000815260040161158f90612d58565b60405180910390fd5b50505050565b606060405180602001604052806000815250905090565b60606115c082610d47565b60006115ca61159e565b905060008151116115ea5760405180602001604052806000815250611615565b806115f484611953565b6040516020016116059291906129a2565b6040516020818303038152906040525b915050919050565b6001816000016000828254019250508190555050565b600081600001549050919050565b61165b828260405180602001604052806000815250611a21565b5050565b60008073ffffffffffffffffffffffffffffffffffffffff1661168183611255565b73ffffffffffffffffffffffffffffffffffffffff1614159050919050565b60018111156117c057600073ffffffffffffffffffffffffffffffffffffffff168473ffffffffffffffffffffffffffffffffffffffff16146117345780600360008673ffffffffffffffffffffffffffffffffffffffff1673ffffffffffffffffffffffffffffffffffffffff168152602001908152602001600020600082825461172c9190612da7565b925050819055505b600073ffffffffffffffffffffffffffffffffffffffff168373ffffffffffffffffffffffffffffffffffffffff16146117bf5780600360008573ffffffffffffffffffffffffffffffffffffffff1673ffffffffffffffffffffffffffffffffffffffff16815260200190815260200160002060008282546117b79190612ddb565b925050819055505b5b50505050565b50505050565b60006117ed8473ffffffffffffffffffffffffffffffffffffffff16611a7c565b15611946578373ffffffffffffffffffffffffffffffffffffffff1663150b7a02611816610d92565b8786866040518563ffffffff1660e01b81526004016118389493929190612e86565b6020604051808303816000875af192505050801561187457506040513d601f19601f820116820180604052508101906118719190612ee7565b60015b6118f6573d80600081146118a4576040519150601f19603f3d011682016040523d82523d6000602084013e6118a9565b606091505b5060008151036118ee576040517f08c379a00000000000000000000000000000000000000000000000000000000081526004016118e590612d58565b60405180910390fd5b805181602001fd5b63150b7a0260e01b7bffffffffffffffffffffffffffffffffffffffffffffffffffffffff1916817bffffffffffffffffffffffffffffffffffffffffffffffffffffffff19161491505061194b565b600190505b949350505050565b60606000600161196284611a9f565b01905060008167ffffffffffffffff811115611981576119806122ce565b5b6040519080825280601f01601f1916602001820160405280156119b35781602001600182028036833780820191505090505b509050600082602001820190505b600115611a16578080600190039150507f3031323334353637383961626364656600000000000000000000000000000000600a86061a8153600a8581611a0a57611a09612f14565b5b049450600085036119c1575b819350505050919050565b611a2b8383611bf2565b611a3860008484846117cc565b611a77576040517f08c379a0000000000000000000000000000000000000000000000000000000008152600401611a6e90612d58565b60405180910390fd5b505050565b6000808273ffffffffffffffffffffffffffffffffffffffff163b119050919050565b600080600090507a184f03e93ff9f4daa797ed6e38ed64bf6a1f0100000000000000008310611afd577a184f03e93ff9f4daa797ed6e38ed64bf6a1f0100000000000000008381611af357611af2612f14565b5b0492506040810190505b6d04ee2d6d415b85acef81000000008310611b3a576d04ee2d6d415b85acef81000000008381611b3057611b2f612f14565b5b0492506020810190505b662386f26fc100008310611b6957662386f26fc100008381611b5f57611b5e612f14565b5b0492506010810190505b6305f5e1008310611b92576305f5e1008381611b8857611b87612f14565b5b0492506008810190505b6127108310611bb7576127108381611bad57611bac612f14565b5b0492506004810190505b60648310611bda5760648381611bd057611bcf612f14565b5b0492506002810190505b600a8310611be9576001810190505b80915050919050565b600073ffffffffffffffffffffffffffffffffffffffff168273ffffffffffffffffffffffffffffffffffffffff1603611c61576040517f08c379a0000000000000000000000000000000000000000000000000000000008152600401611c5890612f8f565b60405180910390fd5b611c6a8161165f565b15611caa576040517f08c379a0000000000000000000000000000000000000000000000000000000008152600401611ca190612ffb565b60405180910390fd5b611cb86000838360016116a0565b611cc18161165f565b15611d01576040517f08c379a0000000000000000000000000000000000000000000000000000000008152600401611cf890612ffb565b60405180910390fd5b6001600360008473ffffffffffffffffffffffffffffffffffffffff1673ffffffffffffffffffffffffffffffffffffffff16815260200190815260200160002060008282540192505081905550816002600083815260200190815260200160002060006101000a81548173ffffffffffffffffffffffffffffffffffffffff021916908373ffffffffffffffffffffffffffffffffffffffff160217905550808273ffffffffffffffffffffffffffffffffffffffff16600073ffffffffffffffffffffffffffffffffffffffff167fddf252ad1be2c89b69c2b068fc378daa952ba7f163c4a11628f55a4df523b3ef60405160405180910390a4611e0b6000838360016117c6565b5050565b828054611e1b90612681565b90600052602060002090601f016020900481019282611e3d5760008555611e84565b82601f10611e5657805160ff1916838001178555611e84565b82800160010185558215611e84579182015b82811115611e83578251825591602001919060010190611e68565b5b509050611e919190611e95565b5090565b5b80821115611eae576000816000905550600101611e96565b5090565b6000604051905090565b600080fd5b600080fd5b60007fffffffff0000000000000000000000000000000000000000000000000000000082169050919050565b611efb81611ec6565b8114611f0657600080fd5b50565b600081359050611f1881611ef2565b92915050565b600060208284031215611f3457611f33611ebc565b5b6000611f4284828501611f09565b91505092915050565b60008115159050919050565b611f6081611f4b565b82525050565b6000602082019050611f7b6000830184611f57565b92915050565b600081519050919050565b600082825260208201905092915050565b60005b83811015611fbb578082015181840152602081019050611fa0565b83811115611fca576000848401525b50505050565b6000601f19601f8301169050919050565b6000611fec82611f81565b611ff68185611f8c565b9350612006818560208601611f9d565b61200f81611fd0565b840191505092915050565b600060208201905081810360008301526120348184611fe1565b905092915050565b6000819050919050565b61204f8161203c565b811461205a57600080fd5b50565b60008135905061206c81612046565b92915050565b60006020828403121561208857612087611ebc565b5b60006120968482850161205d565b91505092915050565b600073ffffffffffffffffffffffffffffffffffffffff82169050919050565b60006120ca8261209f565b9050919050565b6120da816120bf565b82525050565b60006020820190506120f560008301846120d1565b92915050565b612104816120bf565b811461210f57600080fd5b50565b600081359050612121816120fb565b92915050565b6000806040838503121561213e5761213d611ebc565b5b600061214c85828601612112565b925050602061215d8582860161205d565b9150509250929050565b6121708161203c565b82525050565b600060208201905061218b6000830184612167565b92915050565b600081519050919050565b600082825260208201905092915050565b6000819050602082019050919050565b6121c68161203c565b82525050565b60006121d883836121bd565b60208301905092915050565b6000602082019050919050565b60006121fc82612191565b612206818561219c565b9350612211836121ad565b8060005b8381101561224257815161222988826121cc565b9750612234836121e4565b925050600181019050612215565b5085935050505092915050565b6000602082019050818103600083015261226981846121f1565b905092915050565b60008060006060848603121561228a57612289611ebc565b5b600061229886828701612112565b93505060206122a986828701612112565b92505060406122ba8682870161205d565b9150509250925092565b600080fd5b600080fd5b7f4e487b7100000000000000000000000000000000000000000000000000000000600052604160045260246000fd5b61230682611fd0565b810181811067ffffffffffffffff82111715612325576123246122ce565b5b80604052505050565b6000612338611eb2565b905061234482826122fd565b919050565b600067ffffffffffffffff821115612364576123636122ce565b5b61236d82611fd0565b9050602081019050919050565b82818337600083830152505050565b600061239c61239784612349565b61232e565b9050828152602081018484840111156123b8576123b76122c9565b5b6123c384828561237a565b509392505050565b600082601f8301126123e0576123df6122c4565b5b81356123f0848260208601612389565b91505092915050565b600080604083850312156124105761240f611ebc565b5b600061241e8582860161205d565b925050602083013567ffffffffffffffff81111561243f5761243e611ec1565b5b61244b858286016123cb565b9150509250929050565b60006020828403121561246b5761246a611ebc565b5b600061247984828501612112565b91505092915050565b61248b81611f4b565b811461249657600080fd5b50565b6000813590506124a881612482565b92915050565b600080604083850312156124c5576124c4611ebc565b5b60006124d385828601612112565b92505060206124e485828601612499565b9150509250929050565b600067ffffffffffffffff821115612509576125086122ce565b5b61251282611fd0565b9050602081019050919050565b600061253261252d846124ee565b61232e565b90508281526020810184848401111561254e5761254d6122c9565b5b61255984828561237a565b509392505050565b600082601f830112612576576125756122c4565b5b813561258684826020860161251f565b91505092915050565b600080600080608085870312156125a9576125a8611ebc565b5b60006125b787828801612112565b94505060206125c887828801612112565b93505060406125d98782880161205d565b925050606085013567ffffffffffffffff8111156125fa576125f9611ec1565b5b61260687828801612561565b91505092959194509250565b6000806040838503121561262957612628611ebc565b5b600061263785828601612112565b925050602061264885828601612112565b9150509250929050565b7f4e487b7100000000000000000000000000000000000000000000000000000000600052602260045260246000fd5b6000600282049050600182168061269957607f821691505b6020821081036126ac576126ab612652565b5b50919050565b7f4552433732313a20617070726f76616c20746f2063757272656e74206f776e6560008201527f7200000000000000000000000000000000000000000000000000000000000000602082015250565b600061270e602183611f8c565b9150612719826126b2565b604082019050919050565b6000602082019050818103600083015261273d81612701565b9050919050565b7f4552433732313a20617070726f76652063616c6c6572206973206e6f7420746f60008201527f6b656e206f776e6572206f7220617070726f76656420666f7220616c6c000000602082015250565b60006127a0603d83611f8c565b91506127ab82612744565b604082019050919050565b600060208201905081810360008301526127cf81612793565b9050919050565b7f4552433732313a2063616c6c6572206973206e6f7420746f6b656e206f776e6560008201527f72206f7220617070726f76656400000000000000000000000000000000000000602082015250565b6000612832602d83611f8c565b915061283d826127d6565b604082019050919050565b6000602082019050818103600083015261286181612825565b9050919050565b7f4552433732313a20696e76616c696420746f6b656e2049440000000000000000600082015250565b600061289e601883611f8c565b91506128a982612868565b602082019050919050565b600060208201905081810360008301526128cd81612891565b9050919050565b7f4552433732313a2061646472657373207a65726f206973206e6f74206120766160008201527f6c6964206f776e65720000000000000000000000000000000000000000000000602082015250565b6000612930602983611f8c565b915061293b826128d4565b604082019050919050565b6000602082019050818103600083015261295f81612923565b9050919050565b600081905092915050565b600061297c82611f81565b6129868185612966565b9350612996818560208601611f9d565b80840191505092915050565b60006129ae8285612971565b91506129ba8284612971565b91508190509392505050565b7f4f776e61626c653a206e6577206f776e657220697320746865207a65726f206160008201527f6464726573730000000000000000000000000000000000000000000000000000602082015250565b6000612a22602683611f8c565b9150612a2d826129c6565b604082019050919050565b60006020820190508181036000830152612a5181612a15565b9050919050565b7f4552433732313a207472616e736665722066726f6d20696e636f72726563742060008201527f6f776e6572000000000000000000000000000000000000000000000000000000602082015250565b6000612ab4602583611f8c565b9150612abf82612a58565b604082019050919050565b60006020820190508181036000830152612ae381612aa7565b9050919050565b7f4552433732313a207472616e7366657220746f20746865207a65726f2061646460008201527f7265737300000000000000000000000000000000000000000000000000000000602082015250565b6000612b46602483611f8c565b9150612b5182612aea565b604082019050919050565b60006020820190508181036000830152612b7581612b39565b9050919050565b7f45524337323155524953746f726167653a2055524920736574206f66206e6f6e60008201527f6578697374656e7420746f6b656e000000000000000000000000000000000000602082015250565b6000612bd8602e83611f8c565b9150612be382612b7c565b604082019050919050565b60006020820190508181036000830152612c0781612bcb565b9050919050565b7f4f776e61626c653a2063616c6c6572206973206e6f7420746865206f776e6572600082015250565b6000612c44602083611f8c565b9150612c4f82612c0e565b602082019050919050565b60006020820190508181036000830152612c7381612c37565b9050919050565b7f4552433732313a20617070726f766520746f2063616c6c657200000000000000600082015250565b6000612cb0601983611f8c565b9150612cbb82612c7a565b602082019050919050565b60006020820190508181036000830152612cdf81612ca3565b9050919050565b7f4552433732313a207472616e7366657220746f206e6f6e20455243373231526560008201527f63656976657220696d706c656d656e7465720000000000000000000000000000602082015250565b6000612d42603283611f8c565b9150612d4d82612ce6565b604082019050919050565b60006020820190508181036000830152612d7181612d35565b9050919050565b7f4e487b7100000000000000000000000000000000000000000000000000000000600052601160045260246000fd5b6000612db28261203c565b9150612dbd8361203c565b925082821015612dd057612dcf612d78565b5b828203905092915050565b6000612de68261203c565b9150612df18361203c565b9250827fffffffffffffffffffffffffffffffffffffffffffffffffffffffffffffffff03821115612e2657612e25612d78565b5b828201905092915050565b600081519050919050565b600082825260208201905092915050565b6000612e5882612e31565b612e628185612e3c565b9350612e72818560208601611f9d565b612e7b81611fd0565b840191505092915050565b6000608082019050612e9b60008301876120d1565b612ea860208301866120d1565b612eb56040830185612167565b8181036060830152612ec78184612e4d565b905095945050505050565b600081519050612ee181611ef2565b92915050565b600060208284031215612efd57612efc611ebc565b5b6000612f0b84828501612ed2565b91505092915050565b7f4e487b7100000000000000000000000000000000000000000000000000000000600052601260045260246000fd5b7f4552433732313a206d696e7420746f20746865207a65726f2061646472657373600082015250565b6000612f79602083611f8c565b9150612f8482612f43565b602082019050919050565b60006020820190508181036000830152612fa881612f6c565b9050919050565b7f4552433732313a20746f6b656e20616c7265616479206d696e74656400000000600082015250565b6000612fe5601c83611f8c565b9150612ff082612faf565b602082019050919050565b6000602082019050818103600083015261301481612fd8565b905091905056fea264697066735822122056c18513f9cfe8c5f6651317065125d615bc1deadeacbaef59694d9fe33bce3764736f6c634300080d0033",
  "immutableReferences": {},
  "source": "// SPDX-License-Identifier: MIT\npragma solidity ^0.8.13;\n\nimport \"@openzeppelin/contracts/token/ERC721/ERC721.sol\";\nimport \"@openzeppelin/contracts/utils/Counters.sol\";\nimport \"@openzeppelin/contracts/access/Ownable.sol\";\nimport \"@openzeppelin/contracts/token/ERC721/extensions/ERC721URIStorage.sol\";\n\n\n\ncontract Contacts is ERC721URIStorage, Ownable {\n    using Counters for Counters.Counter;\n    uint[] public nftTokenList;\n    Counters.Counter private _tokenIds;\n   \n    constructor() ERC721(\"NToken\", \"NTOKEN\") {}\n\n    function create()\n        public\n        returns (uint256)\n    {\n        _tokenIds.increment();\n        uint256 newItemId = _tokenIds.current();\n        _safeMint(msg.sender, newItemId);\n        nftTokenList.push(newItemId);\n        return newItemId;\n        \n    }\n\n    //   function mint()\n    //     public\n    //     returns (uint256)\n    // {\n\n    //     uint256 newItemId = _tokenIds.current();\n    //     _mint(msg.sender, newItemId);\n       \n\n    //     _tokenIds.increment();\n    //     return newItemId;\n    // }\n    \n    function addData(uint newItemId, string memory tokenURI) public returns (uint256){\n         _setTokenURI(newItemId, tokenURI);\n         return newItemId;\n    }\n\n    function getToken() public view returns (uint[] memory) {\n        return  nftTokenList;\n    }\n\n  \n  \n}\n\n",
  "sourcePath": "G:\\node\\blockchain-node\\blockchain-node-api\\contracts\\Contacts.sol",
  "compiler": {
    "name": "solc",
    "version": "0.8.13+commit.abaa5c0e.Emscripten.clang"
  },
  "schemaVersion": "3.4.10",
  "updatedAt": "2022-12-14T01:12:07.067Z",
  "networkType": "ethereum",
  "devdoc": {
    "kind": "dev",
    "methods": {
      "approve(address,uint256)": {
        "details": "See {IERC721-approve}."
      },
      "balanceOf(address)": {
        "details": "See {IERC721-balanceOf}."
      },
      "getApproved(uint256)": {
        "details": "See {IERC721-getApproved}."
      },
      "isApprovedForAll(address,address)": {
        "details": "See {IERC721-isApprovedForAll}."
      },
      "name()": {
        "details": "See {IERC721Metadata-name}."
      },
      "owner()": {
        "details": "Returns the address of the current owner."
      },
      "ownerOf(uint256)": {
        "details": "See {IERC721-ownerOf}."
      },
      "renounceOwnership()": {
        "details": "Leaves the contract without owner. It will not be possible to call `onlyOwner` functions anymore. Can only be called by the current owner. NOTE: Renouncing ownership will leave the contract without an owner, thereby removing any functionality that is only available to the owner."
      },
      "safeTransferFrom(address,address,uint256)": {
        "details": "See {IERC721-safeTransferFrom}."
      },
      "safeTransferFrom(address,address,uint256,bytes)": {
        "details": "See {IERC721-safeTransferFrom}."
      },
      "setApprovalForAll(address,bool)": {
        "details": "See {IERC721-setApprovalForAll}."
      },
      "supportsInterface(bytes4)": {
        "details": "See {IERC165-supportsInterface}."
      },
      "symbol()": {
        "details": "See {IERC721Metadata-symbol}."
      },
      "tokenURI(uint256)": {
        "details": "See {IERC721Metadata-tokenURI}."
      },
      "transferFrom(address,address,uint256)": {
        "details": "See {IERC721-transferFrom}."
      },
      "transferOwnership(address)": {
        "details": "Transfers ownership of the contract to a new account (`newOwner`). Can only be called by the current owner."
      }
    },
    "version": 1
  },
  "userdoc": {
    "kind": "user",
    "methods": {},
    "version": 1
  }
}