{
  "contractName": "MyNFT",
  "abi": [
    {
      "inputs": [],
      "stateMutability": "nonpayable",
      "type": "constructor"
    },
    {
      "anonymous": false,
      "inputs": [
        {
          "indexed": true,
          "internalType": "address",
          "name": "owner",
          "type": "address"
        },
        {
          "indexed": true,
          "internalType": "address",
          "name": "approved",
          "type": "address"
        },
        {
          "indexed": true,
          "internalType": "uint256",
          "name": "tokenId",
          "type": "uint256"
        }
      ],
      "name": "Approval",
      "type": "event"
    },
    {
      "anonymous": false,
      "inputs": [
        {
          "indexed": true,
          "internalType": "address",
          "name": "owner",
          "type": "address"
        },
        {
          "indexed": true,
          "internalType": "address",
          "name": "operator",
          "type": "address"
        },
        {
          "indexed": false,
          "internalType": "bool",
          "name": "approved",
          "type": "bool"
        }
      ],
      "name": "ApprovalForAll",
      "type": "event"
    },
    {
      "anonymous": false,
      "inputs": [
        {
          "indexed": true,
          "internalType": "address",
          "name": "previousOwner",
          "type": "address"
        },
        {
          "indexed": true,
          "internalType": "address",
          "name": "newOwner",
          "type": "address"
        }
      ],
      "name": "OwnershipTransferred",
      "type": "event"
    },
    {
      "anonymous": false,
      "inputs": [
        {
          "indexed": true,
          "internalType": "address",
          "name": "from",
          "type": "address"
        },
        {
          "indexed": true,
          "internalType": "address",
          "name": "to",
          "type": "address"
        },
        {
          "indexed": true,
          "internalType": "uint256",
          "name": "tokenId",
          "type": "uint256"
        }
      ],
      "name": "Transfer",
      "type": "event"
    },
    {
      "inputs": [
        {
          "internalType": "address",
          "name": "to",
          "type": "address"
        },
        {
          "internalType": "uint256",
          "name": "tokenId",
          "type": "uint256"
        }
      ],
      "name": "approve",
      "outputs": [],
      "stateMutability": "nonpayable",
      "type": "function"
    },
    {
      "inputs": [
        {
          "internalType": "address",
          "name": "owner",
          "type": "address"
        }
      ],
      "name": "balanceOf",
      "outputs": [
        {
          "internalType": "uint256",
          "name": "",
          "type": "uint256"
        }
      ],
      "stateMutability": "view",
      "type": "function"
    },
    {
      "inputs": [
        {
          "internalType": "uint256",
          "name": "tokenId",
          "type": "uint256"
        }
      ],
      "name": "getApproved",
      "outputs": [
        {
          "internalType": "address",
          "name": "",
          "type": "address"
        }
      ],
      "stateMutability": "view",
      "type": "function"
    },
    {
      "inputs": [
        {
          "internalType": "address",
          "name": "owner",
          "type": "address"
        },
        {
          "internalType": "address",
          "name": "operator",
          "type": "address"
        }
      ],
      "name": "isApprovedForAll",
      "outputs": [
        {
          "internalType": "bool",
          "name": "",
          "type": "bool"
        }
      ],
      "stateMutability": "view",
      "type": "function"
    },
    {
      "inputs": [],
      "name": "name",
      "outputs": [
        {
          "internalType": "string",
          "name": "",
          "type": "string"
        }
      ],
      "stateMutability": "view",
      "type": "function"
    },
    {
      "inputs": [
        {
          "internalType": "uint256",
          "name": "",
          "type": "uint256"
        }
      ],
      "name": "nftTokenList",
      "outputs": [
        {
          "internalType": "uint256",
          "name": "",
          "type": "uint256"
        }
      ],
      "stateMutability": "view",
      "type": "function"
    },
    {
      "inputs": [],
      "name": "owner",
      "outputs": [
        {
          "internalType": "address",
          "name": "",
          "type": "address"
        }
      ],
      "stateMutability": "view",
      "type": "function"
    },
    {
      "inputs": [
        {
          "internalType": "uint256",
          "name": "tokenId",
          "type": "uint256"
        }
      ],
      "name": "ownerOf",
      "outputs": [
        {
          "internalType": "address",
          "name": "",
          "type": "address"
        }
      ],
      "stateMutability": "view",
      "type": "function"
    },
    {
      "inputs": [],
      "name": "renounceOwnership",
      "outputs": [],
      "stateMutability": "nonpayable",
      "type": "function"
    },
    {
      "inputs": [
        {
          "internalType": "address",
          "name": "from",
          "type": "address"
        },
        {
          "internalType": "address",
          "name": "to",
          "type": "address"
        },
        {
          "internalType": "uint256",
          "name": "tokenId",
          "type": "uint256"
        }
      ],
      "name": "safeTransferFrom",
      "outputs": [],
      "stateMutability": "nonpayable",
      "type": "function"
    },
    {
      "inputs": [
        {
          "internalType": "address",
          "name": "from",
          "type": "address"
        },
        {
          "internalType": "address",
          "name": "to",
          "type": "address"
        },
        {
          "internalType": "uint256",
          "name": "tokenId",
          "type": "uint256"
        },
        {
          "internalType": "bytes",
          "name": "data",
          "type": "bytes"
        }
      ],
      "name": "safeTransferFrom",
      "outputs": [],
      "stateMutability": "nonpayable",
      "type": "function"
    },
    {
      "inputs": [
        {
          "internalType": "address",
          "name": "operator",
          "type": "address"
        },
        {
          "internalType": "bool",
          "name": "approved",
          "type": "bool"
        }
      ],
      "name": "setApprovalForAll",
      "outputs": [],
      "stateMutability": "nonpayable",
      "type": "function"
    },
    {
      "inputs": [
        {
          "internalType": "bytes4",
          "name": "interfaceId",
          "type": "bytes4"
        }
      ],
      "name": "supportsInterface",
      "outputs": [
        {
          "internalType": "bool",
          "name": "",
          "type": "bool"
        }
      ],
      "stateMutability": "view",
      "type": "function"
    },
    {
      "inputs": [],
      "name": "symbol",
      "outputs": [
        {
          "internalType": "string",
          "name": "",
          "type": "string"
        }
      ],
      "stateMutability": "view",
      "type": "function"
    },
    {
      "inputs": [
        {
          "internalType": "uint256",
          "name": "tokenId",
          "type": "uint256"
        }
      ],
      "name": "tokenURI",
      "outputs": [
        {
          "internalType": "string",
          "name": "",
          "type": "string"
        }
      ],
      "stateMutability": "view",
      "type": "function"
    },
    {
      "inputs": [
        {
          "internalType": "address",
          "name": "from",
          "type": "address"
        },
        {
          "internalType": "address",
          "name": "to",
          "type": "address"
        },
        {
          "internalType": "uint256",
          "name": "tokenId",
          "type": "uint256"
        }
      ],
      "name": "transferFrom",
      "outputs": [],
      "stateMutability": "nonpayable",
      "type": "function"
    },
    {
      "inputs": [
        {
          "internalType": "address",
          "name": "newOwner",
          "type": "address"
        }
      ],
      "name": "transferOwnership",
      "outputs": [],
      "stateMutability": "nonpayable",
      "type": "function"
    },
    {
      "inputs": [],
      "name": "create",
      "outputs": [
        {
          "internalType": "uint256",
          "name": "",
          "type": "uint256"
        }
      ],
      "stateMutability": "nonpayable",
      "type": "function"
    },
    {
      "inputs": [
        {
          "internalType": "uint256",
          "name": "newItemId",
          "type": "uint256"
        },
        {
          "internalType": "string",
          "name": "tokenURI",
          "type": "string"
        }
      ],
      "name": "addData",
      "outputs": [
        {
          "internalType": "uint256",
          "name": "",
          "type": "uint256"
        }
      ],
      "stateMutability": "nonpayable",
      "type": "function"
    },
    {
      "inputs": [],
      "name": "getToken",
      "outputs": [
        {
          "internalType": "uint256[]",
          "name": "",
          "type": "uint256[]"
        }
      ],
      "stateMutability": "view",
      "type": "function"
    }
  ],
  "bytecode": "0x60806040523480156200001157600080fd5b506040518060400160405280600581526020017f546f6b656e0000000000000000000000000000000000000000000000000000008152506040518060400160405280600581526020017f544f4b454e000000000000000000000000000000000000000000000000000000815250816000908051906020019062000096929190620001a6565b508060019080519060200190620000af929190620001a6565b505050620000d2620000c6620000d860201b60201c565b620000e060201b60201c565b620002ba565b600033905090565b6000600760009054906101000a900473ffffffffffffffffffffffffffffffffffffffff16905081600760006101000a81548173ffffffffffffffffffffffffffffffffffffffff021916908373ffffffffffffffffffffffffffffffffffffffff1602179055508173ffffffffffffffffffffffffffffffffffffffff168173ffffffffffffffffffffffffffffffffffffffff167f8be0079c531659141344cd1fd0a4f28419497f9722a3daafe3b4186f6b6457e060405160405180910390a35050565b828054620001b49062000285565b90600052602060002090601f016020900481019282620001d8576000855562000224565b82601f10620001f357805160ff191683800117855562000224565b8280016001018555821562000224579182015b828111156200022357825182559160200191906001019062000206565b5b50905062000233919062000237565b5090565b5b808211156200025257600081600090555060010162000238565b5090565b7f4e487b7100000000000000000000000000000000000000000000000000000000600052602260045260246000fd5b600060028204905060018216806200029e57607f821691505b602082108103620002b457620002b362000256565b5b50919050565b612fd880620002ca6000396000f3fe608060405234801561001057600080fd5b506004361061012c5760003560e01c806370a08231116100ad578063b88d4fde11610071578063b88d4fde14610343578063c87b56dd1461035f578063e985e9c51461038f578063efc81a8c146103bf578063f2fde38b146103dd5761012c565b806370a08231146102b1578063715018a6146102e15780638da5cb5b146102eb57806395d89b4114610309578063a22cb465146103275761012c565b806321df0da7116100f457806321df0da7146101fb57806323b872dd14610219578063424133151461023557806342842e0e146102655780636352211e146102815761012c565b806301ffc9a71461013157806306fdde0314610161578063081812fc1461017f578063095ea7b3146101af5780630dd1abf2146101cb575b600080fd5b61014b60048036038101906101469190611ea5565b6103f9565b6040516101589190611eed565b60405180910390f35b6101696104db565b6040516101769190611fa1565b60405180910390f35b61019960048036038101906101949190611ff9565b61056d565b6040516101a69190612067565b60405180910390f35b6101c960048036038101906101c491906120ae565b6105b3565b005b6101e560048036038101906101e09190611ff9565b6106ca565b6040516101f291906120fd565b60405180910390f35b6102036106ee565b60405161021091906121d6565b60405180910390f35b610233600480360381019061022e91906121f8565b610746565b005b61024f600480360381019061024a9190612380565b6107a6565b60405161025c91906120fd565b60405180910390f35b61027f600480360381019061027a91906121f8565b6107bb565b005b61029b60048036038101906102969190611ff9565b6107db565b6040516102a89190612067565b60405180910390f35b6102cb60048036038101906102c691906123dc565b610861565b6040516102d891906120fd565b60405180910390f35b6102e9610918565b005b6102f361092c565b6040516103009190612067565b60405180910390f35b610311610956565b60405161031e9190611fa1565b60405180910390f35b610341600480360381019061033c9190612435565b6109e8565b005b61035d60048036038101906103589190612516565b6109fe565b005b61037960048036038101906103749190611ff9565b610a60565b6040516103869190611fa1565b60405180910390f35b6103a960048036038101906103a49190612599565b610b72565b6040516103b69190611eed565b60405180910390f35b6103c7610c06565b6040516103d491906120fd565b60405180910390f35b6103f760048036038101906103f291906123dc565b610c5a565b005b60007f80ac58cd000000000000000000000000000000000000000000000000000000007bffffffffffffffffffffffffffffffffffffffffffffffffffffffff1916827bffffffffffffffffffffffffffffffffffffffffffffffffffffffff191614806104c457507f5b5e139f000000000000000000000000000000000000000000000000000000007bffffffffffffffffffffffffffffffffffffffffffffffffffffffff1916827bffffffffffffffffffffffffffffffffffffffffffffffffffffffff1916145b806104d457506104d382610cdd565b5b9050919050565b6060600080546104ea90612608565b80601f016020809104026020016040519081016040528092919081815260200182805461051690612608565b80156105635780601f1061053857610100808354040283529160200191610563565b820191906000526020600020905b81548152906001019060200180831161054657829003601f168201915b5050505050905090565b600061057882610d47565b6004600083815260200190815260200160002060009054906101000a900473ffffffffffffffffffffffffffffffffffffffff169050919050565b60006105be826107db565b90508073ffffffffffffffffffffffffffffffffffffffff168373ffffffffffffffffffffffffffffffffffffffff160361062e576040517f08c379a0000000000000000000000000000000000000000000000000000000008152600401610625906126ab565b60405180910390fd5b8073ffffffffffffffffffffffffffffffffffffffff1661064d610d92565b73ffffffffffffffffffffffffffffffffffffffff16148061067c575061067b81610676610d92565b610b72565b5b6106bb576040517f08c379a00000000000000000000000000000000000000000000000000000000081526004016106b29061273d565b60405180910390fd5b6106c58383610d9a565b505050565b600881815481106106da57600080fd5b906000526020600020016000915090505481565b6060600880548060200260200160405190810160405280929190818152602001828054801561073c57602002820191906000526020600020905b815481526020019060010190808311610728575b5050505050905090565b610757610751610d92565b82610e53565b610796576040517f08c379a000000000000000000000000000000000000000000000000000000000815260040161078d906127cf565b60405180910390fd5b6107a1838383610ee8565b505050565b60006107b283836111e1565b82905092915050565b6107d6838383604051806020016040528060008152506109fe565b505050565b6000806107e783611255565b9050600073ffffffffffffffffffffffffffffffffffffffff168173ffffffffffffffffffffffffffffffffffffffff1603610858576040517f08c379a000000000000000000000000000000000000000000000000000000000815260040161084f9061283b565b60405180910390fd5b80915050919050565b60008073ffffffffffffffffffffffffffffffffffffffff168273ffffffffffffffffffffffffffffffffffffffff16036108d1576040517f08c379a00000000000000000000000000000000000000000000000000000000081526004016108c8906128cd565b60405180910390fd5b600360008373ffffffffffffffffffffffffffffffffffffffff1673ffffffffffffffffffffffffffffffffffffffff168152602001908152602001600020549050919050565b610920611292565b61092a6000611310565b565b6000600760009054906101000a900473ffffffffffffffffffffffffffffffffffffffff16905090565b60606001805461096590612608565b80601f016020809104026020016040519081016040528092919081815260200182805461099190612608565b80156109de5780601f106109b3576101008083540402835291602001916109de565b820191906000526020600020905b8154815290600101906020018083116109c157829003601f168201915b5050505050905090565b6109fa6109f3610d92565b83836113d6565b5050565b610a0f610a09610d92565b83610e53565b610a4e576040517f08c379a0000000000000000000000000000000000000000000000000000000008152600401610a45906127cf565b60405180910390fd5b610a5a84848484611542565b50505050565b6060610a6b82610d47565b6000600660008481526020019081526020016000208054610a8b90612608565b80601f0160208091040260200160405190810160405280929190818152602001828054610ab790612608565b8015610b045780601f10610ad957610100808354040283529160200191610b04565b820191906000526020600020905b815481529060010190602001808311610ae757829003601f168201915b505050505090506000610b1561159e565b90506000815103610b2a578192505050610b6d565b600082511115610b5f578082604051602001610b47929190612929565b60405160208183030381529060405292505050610b6d565b610b68846115b5565b925050505b919050565b6000600560008473ffffffffffffffffffffffffffffffffffffffff1673ffffffffffffffffffffffffffffffffffffffff16815260200190815260200160002060008373ffffffffffffffffffffffffffffffffffffffff1673ffffffffffffffffffffffffffffffffffffffff16815260200190815260200160002060009054906101000a900460ff16905092915050565b6000610c12600961161d565b6000610c1e6009611633565b9050610c2a3382611641565b60088190806001815401808255809150506001900390600052602060002001600090919091909150558091505090565b610c62611292565b600073ffffffffffffffffffffffffffffffffffffffff168173ffffffffffffffffffffffffffffffffffffffff1603610cd1576040517f08c379a0000000000000000000000000000000000000000000000000000000008152600401610cc8906129bf565b60405180910390fd5b610cda81611310565b50565b60007f01ffc9a7000000000000000000000000000000000000000000000000000000007bffffffffffffffffffffffffffffffffffffffffffffffffffffffff1916827bffffffffffffffffffffffffffffffffffffffffffffffffffffffff1916149050919050565b610d508161185e565b610d8f576040517f08c379a0000000000000000000000000000000000000000000000000000000008152600401610d869061283b565b60405180910390fd5b50565b600033905090565b816004600083815260200190815260200160002060006101000a81548173ffffffffffffffffffffffffffffffffffffffff021916908373ffffffffffffffffffffffffffffffffffffffff160217905550808273ffffffffffffffffffffffffffffffffffffffff16610e0d836107db565b73ffffffffffffffffffffffffffffffffffffffff167f8c5be1e5ebec7d5bd14f71427d1e84f3dd0314c0f7b2291e5b200ac8c7c3b92560405160405180910390a45050565b600080610e5f836107db565b90508073ffffffffffffffffffffffffffffffffffffffff168473ffffffffffffffffffffffffffffffffffffffff161480610ea15750610ea08185610b72565b5b80610edf57508373ffffffffffffffffffffffffffffffffffffffff16610ec78461056d565b73ffffffffffffffffffffffffffffffffffffffff16145b91505092915050565b8273ffffffffffffffffffffffffffffffffffffffff16610f08826107db565b73ffffffffffffffffffffffffffffffffffffffff1614610f5e576040517f08c379a0000000000000000000000000000000000000000000000000000000008152600401610f5590612a51565b60405180910390fd5b600073ffffffffffffffffffffffffffffffffffffffff168273ffffffffffffffffffffffffffffffffffffffff1603610fcd576040517f08c379a0000000000000000000000000000000000000000000000000000000008152600401610fc490612ae3565b60405180910390fd5b610fda838383600161189f565b8273ffffffffffffffffffffffffffffffffffffffff16610ffa826107db565b73ffffffffffffffffffffffffffffffffffffffff1614611050576040517f08c379a000000000000000000000000000000000000000000000000000000000815260040161104790612a51565b60405180910390fd5b6004600082815260200190815260200160002060006101000a81549073ffffffffffffffffffffffffffffffffffffffff02191690556001600360008573ffffffffffffffffffffffffffffffffffffffff1673ffffffffffffffffffffffffffffffffffffffff168152602001908152602001600020600082825403925050819055506001600360008473ffffffffffffffffffffffffffffffffffffffff1673ffffffffffffffffffffffffffffffffffffffff16815260200190815260200160002060008282540192505081905550816002600083815260200190815260200160002060006101000a81548173ffffffffffffffffffffffffffffffffffffffff021916908373ffffffffffffffffffffffffffffffffffffffff160217905550808273ffffffffffffffffffffffffffffffffffffffff168473ffffffffffffffffffffffffffffffffffffffff167fddf252ad1be2c89b69c2b068fc378daa952ba7f163c4a11628f55a4df523b3ef60405160405180910390a46111dc83838360016119c5565b505050565b6111ea8261185e565b611229576040517f08c379a000000000000000000000000000000000000000000000000000000000815260040161122090612b75565b60405180910390fd5b80600660008481526020019081526020016000209080519060200190611250929190611d96565b505050565b60006002600083815260200190815260200160002060009054906101000a900473ffffffffffffffffffffffffffffffffffffffff169050919050565b61129a610d92565b73ffffffffffffffffffffffffffffffffffffffff166112b861092c565b73ffffffffffffffffffffffffffffffffffffffff161461130e576040517f08c379a000000000000000000000000000000000000000000000000000000000815260040161130590612be1565b60405180910390fd5b565b6000600760009054906101000a900473ffffffffffffffffffffffffffffffffffffffff16905081600760006101000a81548173ffffffffffffffffffffffffffffffffffffffff021916908373ffffffffffffffffffffffffffffffffffffffff1602179055508173ffffffffffffffffffffffffffffffffffffffff168173ffffffffffffffffffffffffffffffffffffffff167f8be0079c531659141344cd1fd0a4f28419497f9722a3daafe3b4186f6b6457e060405160405180910390a35050565b8173ffffffffffffffffffffffffffffffffffffffff168373ffffffffffffffffffffffffffffffffffffffff1603611444576040517f08c379a000000000000000000000000000000000000000000000000000000000815260040161143b90612c4d565b60405180910390fd5b80600560008573ffffffffffffffffffffffffffffffffffffffff1673ffffffffffffffffffffffffffffffffffffffff16815260200190815260200160002060008473ffffffffffffffffffffffffffffffffffffffff1673ffffffffffffffffffffffffffffffffffffffff16815260200190815260200160002060006101000a81548160ff0219169083151502179055508173ffffffffffffffffffffffffffffffffffffffff168373ffffffffffffffffffffffffffffffffffffffff167f17307eab39ab6107e8899845ad3d59bd9653f200f220920489ca2b5937696c31836040516115359190611eed565b60405180910390a3505050565b61154d848484610ee8565b611559848484846119cb565b611598576040517f08c379a000000000000000000000000000000000000000000000000000000000815260040161158f90612cdf565b60405180910390fd5b50505050565b606060405180602001604052806000815250905090565b60606115c082610d47565b60006115ca61159e565b905060008151116115ea5760405180602001604052806000815250611615565b806115f484611b52565b604051602001611605929190612929565b6040516020818303038152906040525b915050919050565b6001816000016000828254019250508190555050565b600081600001549050919050565b600073ffffffffffffffffffffffffffffffffffffffff168273ffffffffffffffffffffffffffffffffffffffff16036116b0576040517f08c379a00000000000000000000000000000000000000000000000000000000081526004016116a790612d4b565b60405180910390fd5b6116b98161185e565b156116f9576040517f08c379a00000000000000000000000000000000000000000000000000000000081526004016116f090612db7565b60405180910390fd5b61170760008383600161189f565b6117108161185e565b15611750576040517f08c379a000000000000000000000000000000000000000000000000000000000815260040161174790612db7565b60405180910390fd5b6001600360008473ffffffffffffffffffffffffffffffffffffffff1673ffffffffffffffffffffffffffffffffffffffff16815260200190815260200160002060008282540192505081905550816002600083815260200190815260200160002060006101000a81548173ffffffffffffffffffffffffffffffffffffffff021916908373ffffffffffffffffffffffffffffffffffffffff160217905550808273ffffffffffffffffffffffffffffffffffffffff16600073ffffffffffffffffffffffffffffffffffffffff167fddf252ad1be2c89b69c2b068fc378daa952ba7f163c4a11628f55a4df523b3ef60405160405180910390a461185a6000838360016119c5565b5050565b60008073ffffffffffffffffffffffffffffffffffffffff1661188083611255565b73ffffffffffffffffffffffffffffffffffffffff1614159050919050565b60018111156119bf57600073ffffffffffffffffffffffffffffffffffffffff168473ffffffffffffffffffffffffffffffffffffffff16146119335780600360008673ffffffffffffffffffffffffffffffffffffffff1673ffffffffffffffffffffffffffffffffffffffff168152602001908152602001600020600082825461192b9190612e06565b925050819055505b600073ffffffffffffffffffffffffffffffffffffffff168373ffffffffffffffffffffffffffffffffffffffff16146119be5780600360008573ffffffffffffffffffffffffffffffffffffffff1673ffffffffffffffffffffffffffffffffffffffff16815260200190815260200160002060008282546119b69190612e3a565b925050819055505b5b50505050565b50505050565b60006119ec8473ffffffffffffffffffffffffffffffffffffffff16611c20565b15611b45578373ffffffffffffffffffffffffffffffffffffffff1663150b7a02611a15610d92565b8786866040518563ffffffff1660e01b8152600401611a379493929190612ee5565b6020604051808303816000875af1925050508015611a7357506040513d601f19601f82011682018060405250810190611a709190612f46565b60015b611af5573d8060008114611aa3576040519150601f19603f3d011682016040523d82523d6000602084013e611aa8565b606091505b506000815103611aed576040517f08c379a0000000000000000000000000000000000000000000000000000000008152600401611ae490612cdf565b60405180910390fd5b805181602001fd5b63150b7a0260e01b7bffffffffffffffffffffffffffffffffffffffffffffffffffffffff1916817bffffffffffffffffffffffffffffffffffffffffffffffffffffffff191614915050611b4a565b600190505b949350505050565b606060006001611b6184611c43565b01905060008167ffffffffffffffff811115611b8057611b7f612255565b5b6040519080825280601f01601f191660200182016040528015611bb25781602001600182028036833780820191505090505b509050600082602001820190505b600115611c15578080600190039150507f3031323334353637383961626364656600000000000000000000000000000000600a86061a8153600a8581611c0957611c08612f73565b5b04945060008503611bc0575b819350505050919050565b6000808273ffffffffffffffffffffffffffffffffffffffff163b119050919050565b600080600090507a184f03e93ff9f4daa797ed6e38ed64bf6a1f0100000000000000008310611ca1577a184f03e93ff9f4daa797ed6e38ed64bf6a1f0100000000000000008381611c9757611c96612f73565b5b0492506040810190505b6d04ee2d6d415b85acef81000000008310611cde576d04ee2d6d415b85acef81000000008381611cd457611cd3612f73565b5b0492506020810190505b662386f26fc100008310611d0d57662386f26fc100008381611d0357611d02612f73565b5b0492506010810190505b6305f5e1008310611d36576305f5e1008381611d2c57611d2b612f73565b5b0492506008810190505b6127108310611d5b576127108381611d5157611d50612f73565b5b0492506004810190505b60648310611d7e5760648381611d7457611d73612f73565b5b0492506002810190505b600a8310611d8d576001810190505b80915050919050565b828054611da290612608565b90600052602060002090601f016020900481019282611dc45760008555611e0b565b82601f10611ddd57805160ff1916838001178555611e0b565b82800160010185558215611e0b579182015b82811115611e0a578251825591602001919060010190611def565b5b509050611e189190611e1c565b5090565b5b80821115611e35576000816000905550600101611e1d565b5090565b6000604051905090565b600080fd5b600080fd5b60007fffffffff0000000000000000000000000000000000000000000000000000000082169050919050565b611e8281611e4d565b8114611e8d57600080fd5b50565b600081359050611e9f81611e79565b92915050565b600060208284031215611ebb57611eba611e43565b5b6000611ec984828501611e90565b91505092915050565b60008115159050919050565b611ee781611ed2565b82525050565b6000602082019050611f026000830184611ede565b92915050565b600081519050919050565b600082825260208201905092915050565b60005b83811015611f42578082015181840152602081019050611f27565b83811115611f51576000848401525b50505050565b6000601f19601f8301169050919050565b6000611f7382611f08565b611f7d8185611f13565b9350611f8d818560208601611f24565b611f9681611f57565b840191505092915050565b60006020820190508181036000830152611fbb8184611f68565b905092915050565b6000819050919050565b611fd681611fc3565b8114611fe157600080fd5b50565b600081359050611ff381611fcd565b92915050565b60006020828403121561200f5761200e611e43565b5b600061201d84828501611fe4565b91505092915050565b600073ffffffffffffffffffffffffffffffffffffffff82169050919050565b600061205182612026565b9050919050565b61206181612046565b82525050565b600060208201905061207c6000830184612058565b92915050565b61208b81612046565b811461209657600080fd5b50565b6000813590506120a881612082565b92915050565b600080604083850312156120c5576120c4611e43565b5b60006120d385828601612099565b92505060206120e485828601611fe4565b9150509250929050565b6120f781611fc3565b82525050565b600060208201905061211260008301846120ee565b92915050565b600081519050919050565b600082825260208201905092915050565b6000819050602082019050919050565b61214d81611fc3565b82525050565b600061215f8383612144565b60208301905092915050565b6000602082019050919050565b600061218382612118565b61218d8185612123565b935061219883612134565b8060005b838110156121c95781516121b08882612153565b97506121bb8361216b565b92505060018101905061219c565b5085935050505092915050565b600060208201905081810360008301526121f08184612178565b905092915050565b60008060006060848603121561221157612210611e43565b5b600061221f86828701612099565b935050602061223086828701612099565b925050604061224186828701611fe4565b9150509250925092565b600080fd5b600080fd5b7f4e487b7100000000000000000000000000000000000000000000000000000000600052604160045260246000fd5b61228d82611f57565b810181811067ffffffffffffffff821117156122ac576122ab612255565b5b80604052505050565b60006122bf611e39565b90506122cb8282612284565b919050565b600067ffffffffffffffff8211156122eb576122ea612255565b5b6122f482611f57565b9050602081019050919050565b82818337600083830152505050565b600061232361231e846122d0565b6122b5565b90508281526020810184848401111561233f5761233e612250565b5b61234a848285612301565b509392505050565b600082601f8301126123675761236661224b565b5b8135612377848260208601612310565b91505092915050565b6000806040838503121561239757612396611e43565b5b60006123a585828601611fe4565b925050602083013567ffffffffffffffff8111156123c6576123c5611e48565b5b6123d285828601612352565b9150509250929050565b6000602082840312156123f2576123f1611e43565b5b600061240084828501612099565b91505092915050565b61241281611ed2565b811461241d57600080fd5b50565b60008135905061242f81612409565b92915050565b6000806040838503121561244c5761244b611e43565b5b600061245a85828601612099565b925050602061246b85828601612420565b9150509250929050565b600067ffffffffffffffff8211156124905761248f612255565b5b61249982611f57565b9050602081019050919050565b60006124b96124b484612475565b6122b5565b9050828152602081018484840111156124d5576124d4612250565b5b6124e0848285612301565b509392505050565b600082601f8301126124fd576124fc61224b565b5b813561250d8482602086016124a6565b91505092915050565b600080600080608085870312156125305761252f611e43565b5b600061253e87828801612099565b945050602061254f87828801612099565b935050604061256087828801611fe4565b925050606085013567ffffffffffffffff81111561258157612580611e48565b5b61258d878288016124e8565b91505092959194509250565b600080604083850312156125b0576125af611e43565b5b60006125be85828601612099565b92505060206125cf85828601612099565b9150509250929050565b7f4e487b7100000000000000000000000000000000000000000000000000000000600052602260045260246000fd5b6000600282049050600182168061262057607f821691505b602082108103612633576126326125d9565b5b50919050565b7f4552433732313a20617070726f76616c20746f2063757272656e74206f776e6560008201527f7200000000000000000000000000000000000000000000000000000000000000602082015250565b6000612695602183611f13565b91506126a082612639565b604082019050919050565b600060208201905081810360008301526126c481612688565b9050919050565b7f4552433732313a20617070726f76652063616c6c6572206973206e6f7420746f60008201527f6b656e206f776e6572206f7220617070726f76656420666f7220616c6c000000602082015250565b6000612727603d83611f13565b9150612732826126cb565b604082019050919050565b600060208201905081810360008301526127568161271a565b9050919050565b7f4552433732313a2063616c6c6572206973206e6f7420746f6b656e206f776e6560008201527f72206f7220617070726f76656400000000000000000000000000000000000000602082015250565b60006127b9602d83611f13565b91506127c48261275d565b604082019050919050565b600060208201905081810360008301526127e8816127ac565b9050919050565b7f4552433732313a20696e76616c696420746f6b656e2049440000000000000000600082015250565b6000612825601883611f13565b9150612830826127ef565b602082019050919050565b6000602082019050818103600083015261285481612818565b9050919050565b7f4552433732313a2061646472657373207a65726f206973206e6f74206120766160008201527f6c6964206f776e65720000000000000000000000000000000000000000000000602082015250565b60006128b7602983611f13565b91506128c28261285b565b604082019050919050565b600060208201905081810360008301526128e6816128aa565b9050919050565b600081905092915050565b600061290382611f08565b61290d81856128ed565b935061291d818560208601611f24565b80840191505092915050565b600061293582856128f8565b915061294182846128f8565b91508190509392505050565b7f4f776e61626c653a206e6577206f776e657220697320746865207a65726f206160008201527f6464726573730000000000000000000000000000000000000000000000000000602082015250565b60006129a9602683611f13565b91506129b48261294d565b604082019050919050565b600060208201905081810360008301526129d88161299c565b9050919050565b7f4552433732313a207472616e736665722066726f6d20696e636f72726563742060008201527f6f776e6572000000000000000000000000000000000000000000000000000000602082015250565b6000612a3b602583611f13565b9150612a46826129df565b604082019050919050565b60006020820190508181036000830152612a6a81612a2e565b9050919050565b7f4552433732313a207472616e7366657220746f20746865207a65726f2061646460008201527f7265737300000000000000000000000000000000000000000000000000000000602082015250565b6000612acd602483611f13565b9150612ad882612a71565b604082019050919050565b60006020820190508181036000830152612afc81612ac0565b9050919050565b7f45524337323155524953746f726167653a2055524920736574206f66206e6f6e60008201527f6578697374656e7420746f6b656e000000000000000000000000000000000000602082015250565b6000612b5f602e83611f13565b9150612b6a82612b03565b604082019050919050565b60006020820190508181036000830152612b8e81612b52565b9050919050565b7f4f776e61626c653a2063616c6c6572206973206e6f7420746865206f776e6572600082015250565b6000612bcb602083611f13565b9150612bd682612b95565b602082019050919050565b60006020820190508181036000830152612bfa81612bbe565b9050919050565b7f4552433732313a20617070726f766520746f2063616c6c657200000000000000600082015250565b6000612c37601983611f13565b9150612c4282612c01565b602082019050919050565b60006020820190508181036000830152612c6681612c2a565b9050919050565b7f4552433732313a207472616e7366657220746f206e6f6e20455243373231526560008201527f63656976657220696d706c656d656e7465720000000000000000000000000000602082015250565b6000612cc9603283611f13565b9150612cd482612c6d565b604082019050919050565b60006020820190508181036000830152612cf881612cbc565b9050919050565b7f4552433732313a206d696e7420746f20746865207a65726f2061646472657373600082015250565b6000612d35602083611f13565b9150612d4082612cff565b602082019050919050565b60006020820190508181036000830152612d6481612d28565b9050919050565b7f4552433732313a20746f6b656e20616c7265616479206d696e74656400000000600082015250565b6000612da1601c83611f13565b9150612dac82612d6b565b602082019050919050565b60006020820190508181036000830152612dd081612d94565b9050919050565b7f4e487b7100000000000000000000000000000000000000000000000000000000600052601160045260246000fd5b6000612e1182611fc3565b9150612e1c83611fc3565b925082821015612e2f57612e2e612dd7565b5b828203905092915050565b6000612e4582611fc3565b9150612e5083611fc3565b9250827fffffffffffffffffffffffffffffffffffffffffffffffffffffffffffffffff03821115612e8557612e84612dd7565b5b828201905092915050565b600081519050919050565b600082825260208201905092915050565b6000612eb782612e90565b612ec18185612e9b565b9350612ed1818560208601611f24565b612eda81611f57565b840191505092915050565b6000608082019050612efa6000830187612058565b612f076020830186612058565b612f1460408301856120ee565b8181036060830152612f268184612eac565b905095945050505050565b600081519050612f4081611e79565b92915050565b600060208284031215612f5c57612f5b611e43565b5b6000612f6a84828501612f31565b91505092915050565b7f4e487b7100000000000000000000000000000000000000000000000000000000600052601260045260246000fdfea2646970667358221220232f44ab798b52ccb8d03866c7cc95e2b601a1d048f4f36868b957f664dacff964736f6c634300080d0033",
  "immutableReferences": {},
  "source": "// SPDX-License-Identifier: MIT\npragma solidity ^0.8.13;\n\nimport \"@openzeppelin/contracts/token/ERC721/ERC721.sol\";\nimport \"@openzeppelin/contracts/utils/Counters.sol\";\nimport \"@openzeppelin/contracts/access/Ownable.sol\";\nimport \"@openzeppelin/contracts/token/ERC721/extensions/ERC721URIStorage.sol\";\n\n\n\ncontract MyNFT is ERC721URIStorage, Ownable {\n    using Counters for Counters.Counter;\n    uint[] public nftTokenList;\n    Counters.Counter private _tokenIds;\n   \n    constructor() ERC721(\"Token\", \"TOKEN\") {}\n\n    function create()\n        public\n        returns (uint256)\n    {\n        _tokenIds.increment();\n        uint256 newItemId = _tokenIds.current();\n        _mint(msg.sender, newItemId);\n        nftTokenList.push(newItemId);\n        return newItemId;\n    }\n    \n    function addData(uint newItemId, string memory tokenURI) public returns (uint256){\n         _setTokenURI(newItemId, tokenURI);\n         return newItemId;\n    }\n\n    function getToken() public view returns (uint[] memory) {\n        return  nftTokenList;\n    }\n\n  \n  \n}",
  "sourcePath": "G:\\node\\blockchain-node-master\\blockchain-node-api\\contracts\\Contacts.sol",
  "compiler": {
    "name": "solc",
    "version": "0.8.13+commit.abaa5c0e.Emscripten.clang"
  },
  "schemaVersion": "3.4.10",
  "updatedAt": "2022-11-30T19:33:43.714Z",
  "devdoc": {
    "kind": "dev",
    "methods": {
      "approve(address,uint256)": {
        "details": "See {IERC721-approve}."
      },
      "balanceOf(address)": {
        "details": "See {IERC721-balanceOf}."
      },
      "getApproved(uint256)": {
        "details": "See {IERC721-getApproved}."
      },
      "isApprovedForAll(address,address)": {
        "details": "See {IERC721-isApprovedForAll}."
      },
      "name()": {
        "details": "See {IERC721Metadata-name}."
      },
      "owner()": {
        "details": "Returns the address of the current owner."
      },
      "ownerOf(uint256)": {
        "details": "See {IERC721-ownerOf}."
      },
      "renounceOwnership()": {
        "details": "Leaves the contract without owner. It will not be possible to call `onlyOwner` functions anymore. Can only be called by the current owner. NOTE: Renouncing ownership will leave the contract without an owner, thereby removing any functionality that is only available to the owner."
      },
      "safeTransferFrom(address,address,uint256)": {
        "details": "See {IERC721-safeTransferFrom}."
      },
      "safeTransferFrom(address,address,uint256,bytes)": {
        "details": "See {IERC721-safeTransferFrom}."
      },
      "setApprovalForAll(address,bool)": {
        "details": "See {IERC721-setApprovalForAll}."
      },
      "supportsInterface(bytes4)": {
        "details": "See {IERC165-supportsInterface}."
      },
      "symbol()": {
        "details": "See {IERC721Metadata-symbol}."
      },
      "tokenURI(uint256)": {
        "details": "See {IERC721Metadata-tokenURI}."
      },
      "transferFrom(address,address,uint256)": {
        "details": "See {IERC721-transferFrom}."
      },
      "transferOwnership(address)": {
        "details": "Transfers ownership of the contract to a new account (`newOwner`). Can only be called by the current owner."
      }
    },
    "version": 1
  },
  "userdoc": {
    "kind": "user",
    "methods": {},
    "version": 1
  }
}